{
  "contractName": "Hedgie",
  "abi": [
    {
      "constant": true,
      "inputs": [],
      "name": "name",
      "outputs": [
        {
          "name": "",
          "type": "string"
        }
      ],
      "payable": false,
      "stateMutability": "view",
      "type": "function"
    },
    {
      "constant": false,
      "inputs": [
        {
          "name": "_to",
          "type": "address"
        },
        {
          "name": "_tokenId",
          "type": "uint256"
        }
      ],
      "name": "approve",
      "outputs": [],
      "payable": false,
      "stateMutability": "nonpayable",
      "type": "function"
    },
    {
      "constant": true,
      "inputs": [],
      "name": "implementsERC721",
      "outputs": [
        {
          "name": "_implementsERC721",
          "type": "bool"
        }
      ],
      "payable": false,
      "stateMutability": "view",
      "type": "function"
    },
    {
      "constant": true,
      "inputs": [],
      "name": "totalSupply",
      "outputs": [
        {
          "name": "",
          "type": "uint256"
        }
      ],
      "payable": false,
      "stateMutability": "view",
      "type": "function"
    },
    {
      "constant": false,
      "inputs": [
        {
          "name": "_to",
          "type": "address"
        },
        {
          "name": "_tokenIds",
          "type": "uint256[]"
        }
      ],
      "name": "transferMultiple",
      "outputs": [],
      "payable": false,
      "stateMutability": "nonpayable",
      "type": "function"
    },
    {
      "constant": true,
      "inputs": [
        {
          "name": "_tokenId",
          "type": "uint256"
        }
      ],
      "name": "getTokenAttributes",
      "outputs": [
        {
          "name": "",
          "type": "uint256"
        },
        {
          "name": "",
          "type": "uint256"
        },
        {
          "name": "",
          "type": "uint256"
        },
        {
          "name": "",
          "type": "uint256"
        }
      ],
      "payable": false,
      "stateMutability": "view",
      "type": "function"
    },
    {
      "constant": false,
      "inputs": [
        {
          "name": "_to",
          "type": "address"
        },
        {
          "name": "_tokenIds",
          "type": "uint256[]"
        }
      ],
      "name": "approveMultiple",
      "outputs": [],
      "payable": false,
      "stateMutability": "nonpayable",
      "type": "function"
    },
    {
      "constant": false,
      "inputs": [
        {
          "name": "_from",
          "type": "address"
        },
        {
          "name": "_to",
          "type": "address"
        },
        {
          "name": "_tokenId",
          "type": "uint256"
        }
      ],
      "name": "transferFrom",
      "outputs": [],
      "payable": false,
      "stateMutability": "nonpayable",
      "type": "function"
    },
    {
      "constant": true,
      "inputs": [
        {
          "name": "_tokenId",
          "type": "uint256"
        }
      ],
      "name": "approvedFor",
      "outputs": [
        {
          "name": "",
          "type": "address"
        }
      ],
      "payable": false,
      "stateMutability": "view",
      "type": "function"
    },
    {
      "constant": true,
      "inputs": [
        {
          "name": "_owner",
          "type": "address"
        },
        {
          "name": "_index",
          "type": "uint256"
        }
      ],
      "name": "tokenOfOwnerByIndex",
      "outputs": [
        {
          "name": "tokenId",
          "type": "uint256"
        }
      ],
      "payable": false,
      "stateMutability": "view",
      "type": "function"
    },
    {
      "constant": true,
      "inputs": [],
      "name": "decimals",
      "outputs": [
        {
          "name": "",
          "type": "uint256"
        }
      ],
      "payable": false,
      "stateMutability": "view",
      "type": "function"
    },
    {
      "constant": true,
      "inputs": [
        {
          "name": "",
          "type": "uint256"
        }
      ],
      "name": "tokenMetadataExistence",
      "outputs": [
        {
          "name": "",
          "type": "uint256"
        }
      ],
      "payable": false,
      "stateMutability": "view",
      "type": "function"
    },
    {
      "constant": true,
      "inputs": [
        {
          "name": "_tokenId",
          "type": "uint256"
        }
      ],
      "name": "ownerOf",
      "outputs": [
        {
          "name": "",
          "type": "address"
        }
      ],
      "payable": false,
      "stateMutability": "view",
      "type": "function"
    },
    {
      "constant": true,
      "inputs": [
        {
          "name": "",
          "type": "uint256"
        }
      ],
      "name": "tokenMetadata",
      "outputs": [
        {
          "name": "color",
          "type": "string"
        },
        {
          "name": "fire",
          "type": "uint256"
        },
        {
          "name": "earth",
          "type": "uint256"
        },
        {
          "name": "air",
          "type": "uint256"
        },
        {
          "name": "water",
          "type": "uint256"
        },
        {
          "name": "creationTimestamp",
          "type": "uint256"
        }
      ],
      "payable": false,
      "stateMutability": "view",
      "type": "function"
    },
    {
      "constant": true,
      "inputs": [
        {
          "name": "_owner",
          "type": "address"
        }
      ],
      "name": "balanceOf",
      "outputs": [
        {
          "name": "",
          "type": "uint256"
        }
      ],
      "payable": false,
      "stateMutability": "view",
      "type": "function"
    },
    {
      "constant": true,
      "inputs": [
        {
          "name": "_color",
          "type": "string"
        }
      ],
      "name": "tokenIdFromColor",
      "outputs": [
        {
          "name": "tokenId",
          "type": "uint256"
        }
      ],
      "payable": false,
      "stateMutability": "view",
      "type": "function"
    },
    {
      "constant": false,
      "inputs": [
        {
          "name": "_from",
          "type": "address"
        },
        {
          "name": "_to",
          "type": "address"
        },
        {
          "name": "_tokenIds",
          "type": "uint256[]"
        }
      ],
      "name": "transferFromMultiple",
      "outputs": [],
      "payable": false,
      "stateMutability": "nonpayable",
      "type": "function"
    },
    {
      "constant": true,
      "inputs": [
        {
          "name": "_tokenId",
          "type": "uint256"
        }
      ],
      "name": "getTokenColor",
      "outputs": [
        {
          "name": "",
          "type": "string"
        }
      ],
      "payable": false,
      "stateMutability": "view",
      "type": "function"
    },
    {
      "constant": true,
      "inputs": [],
      "name": "owner",
      "outputs": [
        {
          "name": "",
          "type": "address"
        }
      ],
      "payable": false,
      "stateMutability": "view",
      "type": "function"
    },
    {
      "constant": true,
      "inputs": [],
      "name": "symbol",
      "outputs": [
        {
          "name": "",
          "type": "string"
        }
      ],
      "payable": false,
      "stateMutability": "view",
      "type": "function"
    },
    {
      "constant": false,
      "inputs": [],
      "name": "createToken",
      "outputs": [],
      "payable": false,
      "stateMutability": "nonpayable",
      "type": "function"
    },
    {
      "constant": false,
      "inputs": [
        {
          "name": "_tokenId",
          "type": "uint256"
        },
        {
          "name": "_color",
          "type": "string"
        },
        {
          "name": "_fire",
          "type": "uint256"
        },
        {
          "name": "_earth",
          "type": "uint256"
        },
        {
          "name": "_air",
          "type": "uint256"
        },
        {
          "name": "_water",
          "type": "uint256"
        }
      ],
      "name": "addTokenMetadata",
      "outputs": [],
      "payable": false,
      "stateMutability": "nonpayable",
      "type": "function"
    },
    {
      "constant": false,
      "inputs": [
        {
          "name": "_to",
          "type": "address"
        },
        {
          "name": "_tokenId",
          "type": "uint256"
        }
      ],
      "name": "transfer",
      "outputs": [],
      "payable": false,
      "stateMutability": "nonpayable",
      "type": "function"
    },
    {
      "constant": false,
      "inputs": [
        {
          "name": "_tokenId",
          "type": "uint256"
        }
      ],
      "name": "takeOwnership",
      "outputs": [],
      "payable": false,
      "stateMutability": "nonpayable",
      "type": "function"
    },
    {
      "constant": false,
      "inputs": [
        {
          "name": "newOwner",
          "type": "address"
        }
      ],
      "name": "transferOwnership",
      "outputs": [],
      "payable": false,
      "stateMutability": "nonpayable",
      "type": "function"
    },
    {
      "payable": true,
      "stateMutability": "payable",
      "type": "fallback"
    },
    {
      "anonymous": false,
      "inputs": [
        {
          "indexed": true,
          "name": "from",
          "type": "address"
        },
        {
          "indexed": true,
          "name": "to",
          "type": "address"
        },
        {
          "indexed": true,
          "name": "tokenId",
          "type": "uint256"
        }
      ],
      "name": "Transfer",
      "type": "event"
    },
    {
      "anonymous": false,
      "inputs": [
        {
          "indexed": true,
          "name": "owner",
          "type": "address"
        },
        {
          "indexed": true,
          "name": "approved",
          "type": "address"
        },
        {
          "indexed": true,
          "name": "tokenId",
          "type": "uint256"
        }
      ],
      "name": "Approval",
      "type": "event"
    },
    {
      "anonymous": false,
      "inputs": [
        {
          "indexed": true,
          "name": "previousOwner",
          "type": "address"
        },
        {
          "indexed": true,
          "name": "newOwner",
          "type": "address"
        }
      ],
      "name": "OwnershipTransferred",
      "type": "event"
    }
  ],
  "bytecode": "0x60606040526000805533600660006101000a81548173ffffffffffffffffffffffffffffffffffffffff021916908373ffffffffffffffffffffffffffffffffffffffff160217905550341561005457600080fd5b612115806100636000396000f300606060405260043610610149576000357c0100000000000000000000000000000000000000000000000000000000900463ffffffff16806306fdde031461014b578063095ea7b3146101d95780631051db341461021b57806318160ddd146102485780631d976e05146102715780631f4f5a23146102ea5780631f5c3a3c1461033657806323b872dd146103af5780632a6dd48f146104105780632f745c5914610473578063313ce567146104c957806360c13517146104f25780636352211e146105295780636914db601461058c57806370a08231146106685780638094dd63146106b55780638cd2c6ab146107265780638cfe9665146107be5780638da5cb5b1461085a57806395d89b41146108af5780639cbf9e361461093d578063a0cf300214610952578063a9059cbb146109dc578063b2e6ceeb14610a1e578063f2fde38b14610a41575b005b341561015657600080fd5b61015e610a7a565b6040518080602001828103825283818151815260200191508051906020019080838360005b8381101561019e578082015181840152602081019050610183565b50505050905090810190601f1680156101cb5780820380516001836020036101000a031916815260200191505b509250505060405180910390f35b34156101e457600080fd5b610219600480803573ffffffffffffffffffffffffffffffffffffffff16906020019091908035906020019091905050610ab3565b005b341561022657600080fd5b61022e610c2e565b604051808215151515815260200191505060405180910390f35b341561025357600080fd5b61025b610c37565b6040518082815260200191505060405180910390f35b341561027c57600080fd5b6102e8600480803573ffffffffffffffffffffffffffffffffffffffff1690602001909190803590602001908201803590602001908080602002602001604051908101604052809392919081815260200183836020028082843782019150505050505091905050610c40565b005b34156102f557600080fd5b61030b6004808035906020019091905050610c83565b6040518085815260200184815260200183815260200182815260200194505050505060405180910390f35b341561034157600080fd5b6103ad600480803573ffffffffffffffffffffffffffffffffffffffff1690602001909190803590602001908201803590602001908080602002602001604051908101604052809392919081815260200183836020028082843782019150505050505091905050610cf4565b005b34156103ba57600080fd5b61040e600480803573ffffffffffffffffffffffffffffffffffffffff1690602001909190803573ffffffffffffffffffffffffffffffffffffffff16906020019091908035906020019091905050610ee7565b005b341561041b57600080fd5b6104316004808035906020019091905050610fb7565b604051808273ffffffffffffffffffffffffffffffffffffffff1673ffffffffffffffffffffffffffffffffffffffff16815260200191505060405180910390f35b341561047e57600080fd5b6104b3600480803573ffffffffffffffffffffffffffffffffffffffff16906020019091908035906020019091905050610ff4565b6040518082815260200191505060405180910390f35b34156104d457600080fd5b6104dc611056565b6040518082815260200191505060405180910390f35b34156104fd57600080fd5b610513600480803590602001909190505061105b565b6040518082815260200191505060405180910390f35b341561053457600080fd5b61054a6004808035906020019091905050611073565b604051808273ffffffffffffffffffffffffffffffffffffffff1673ffffffffffffffffffffffffffffffffffffffff16815260200191505060405180910390f35b341561059757600080fd5b6105ad60048080359060200190919050506110f1565b60405180806020018781526020018681526020018581526020018481526020018381526020018281038252888181546001816001161561010002031660029004815260200191508054600181600116156101000203166002900480156106545780601f1061062957610100808354040283529160200191610654565b820191906000526020600020905b81548152906001019060200180831161063757829003601f168201915b505097505050505050505060405180910390f35b341561067357600080fd5b61069f600480803573ffffffffffffffffffffffffffffffffffffffff1690602001909190505061112c565b6040518082815260200191505060405180910390f35b34156106c057600080fd5b610710600480803590602001908201803590602001908080601f01602080910402602001604051908101604052809392919081815260200183838082843782019150505050505091905050611178565b6040518082815260200191505060405180910390f35b341561073157600080fd5b6107bc600480803573ffffffffffffffffffffffffffffffffffffffff1690602001909190803573ffffffffffffffffffffffffffffffffffffffff16906020019091908035906020019082018035906020019080806020026020016040519081016040528093929190818152602001838360200280828437820191505050505050919050506111ed565b005b34156107c957600080fd5b6107df600480803590602001909190505061131f565b6040518080602001828103825283818151815260200191508051906020019080838360005b8381101561081f578082015181840152602081019050610804565b50505050905090810190601f16801561084c5780820380516001836020036101000a031916815260200191505b509250505060405180910390f35b341561086557600080fd5b61086d6113dd565b604051808273ffffffffffffffffffffffffffffffffffffffff1673ffffffffffffffffffffffffffffffffffffffff16815260200191505060405180910390f35b34156108ba57600080fd5b6108c2611403565b6040518080602001828103825283818151815260200191508051906020019080838360005b838110156109025780820151818401526020810190506108e7565b50505050905090810190601f16801561092f5780820380516001836020036101000a031916815260200191505b509250505060405180910390f35b341561094857600080fd5b61095061143c565b005b341561095d57600080fd5b6109da600480803590602001909190803590602001908201803590602001908080601f0160208091040260200160405190810160405280939291908181526020018383808284378201915050505050509190803590602001909190803590602001909190803590602001909190803590602001909190505061150a565b005b34156109e757600080fd5b610a1c600480803573ffffffffffffffffffffffffffffffffffffffff16906020019091908035906020019091905050611796565b005b3415610a2957600080fd5b610a3f60048080359060200190919050506117a5565b005b3415610a4c57600080fd5b610a78600480803573ffffffffffffffffffffffffffffffffffffffff169060200190919050506117fd565b005b6040805190810160405280600681526020017f486564676965000000000000000000000000000000000000000000000000000081525081565b803373ffffffffffffffffffffffffffffffffffffffff16610ad482611073565b73ffffffffffffffffffffffffffffffffffffffff16141515610af657600080fd5b8273ffffffffffffffffffffffffffffffffffffffff163373ffffffffffffffffffffffffffffffffffffffff1614151515610b3157600080fd5b6000610b3c83610fb7565b73ffffffffffffffffffffffffffffffffffffffff16141580610b76575060008373ffffffffffffffffffffffffffffffffffffffff1614155b15610c2957826003600084815260200190815260200160002060006101000a81548173ffffffffffffffffffffffffffffffffffffffff021916908373ffffffffffffffffffffffffffffffffffffffff160217905550818373ffffffffffffffffffffffffffffffffffffffff163373ffffffffffffffffffffffffffffffffffffffff167f8c5be1e5ebec7d5bd14f71427d1e84f3dd0314c0f7b2291e5b200ac8c7c3b92560405160405180910390a45b505050565b60006001905090565b60008054905090565b60008090505b8151811015610c7e57610c7133848484815181101515610c6257fe5b90602001906020020151611976565b8080600101915050610c46565b505050565b600080600080600760008681526020019081526020016000206001015460076000878152602001908152602001600020600201546007600088815260200190815260200160002060030154600760008981526020019081526020016000206004015493509350935093509193509193565b60008273ffffffffffffffffffffffffffffffffffffffff163373ffffffffffffffffffffffffffffffffffffffff1614151515610d3157600080fd5b600090505b8151811015610ee257610d5f8282815181101515610d5057fe5b90602001906020020151611073565b73ffffffffffffffffffffffffffffffffffffffff163373ffffffffffffffffffffffffffffffffffffffff16141515610d9857600080fd5b6000610dba8383815181101515610dab57fe5b90602001906020020151610fb7565b73ffffffffffffffffffffffffffffffffffffffff16141580610df4575060008373ffffffffffffffffffffffffffffffffffffffff1614155b15610ed55782600360008484815181101515610e0c57fe5b90602001906020020151815260200190815260200160002060006101000a81548173ffffffffffffffffffffffffffffffffffffffff021916908373ffffffffffffffffffffffffffffffffffffffff1602179055508181815181101515610e7057fe5b906020019060200201518373ffffffffffffffffffffffffffffffffffffffff163373ffffffffffffffffffffffffffffffffffffffff167f8c5be1e5ebec7d5bd14f71427d1e84f3dd0314c0f7b2291e5b200ac8c7c3b92560405160405180910390a45b8080600101915050610d36565b505050565b3373ffffffffffffffffffffffffffffffffffffffff16610f0782610fb7565b73ffffffffffffffffffffffffffffffffffffffff16141515610f2957600080fd5b8273ffffffffffffffffffffffffffffffffffffffff16610f4982611073565b73ffffffffffffffffffffffffffffffffffffffff16141515610f6b57600080fd5b600073ffffffffffffffffffffffffffffffffffffffff168273ffffffffffffffffffffffffffffffffffffffff1614151515610fa757600080fd5b610fb2838383611976565b505050565b60006003600083815260200190815260200160002060009054906101000a900473ffffffffffffffffffffffffffffffffffffffff169050919050565b6000600460008473ffffffffffffffffffffffffffffffffffffffff1673ffffffffffffffffffffffffffffffffffffffff1681526020019081526020016000208281548110151561104257fe5b906000526020600020900154905092915050565b600781565b60086020528060005260406000206000915090505481565b6000806001600084815260200190815260200160002060009054906101000a900473ffffffffffffffffffffffffffffffffffffffff169050600073ffffffffffffffffffffffffffffffffffffffff168173ffffffffffffffffffffffffffffffffffffffff16141515156110e857600080fd5b80915050919050565b600760205280600052604060002060009150905080600001908060010154908060020154908060030154908060040154908060050154905086565b6000600460008373ffffffffffffffffffffffffffffffffffffffff1673ffffffffffffffffffffffffffffffffffffffff168152602001908152602001600020805490509050919050565b60006002826040518082805190602001908083835b6020831015156111b2578051825260208201915060208101905060208303925061118d565b6001836020036101000a0380198251168184511680821785525050505050509050019150509081526020016040518091039020549050919050565b60008090505b8151811015611319573373ffffffffffffffffffffffffffffffffffffffff16611233838381518110151561122457fe5b90602001906020020151610fb7565b73ffffffffffffffffffffffffffffffffffffffff1614151561125557600080fd5b8373ffffffffffffffffffffffffffffffffffffffff1661128c838381518110151561127d57fe5b90602001906020020151611073565b73ffffffffffffffffffffffffffffffffffffffff161415156112ae57600080fd5b600073ffffffffffffffffffffffffffffffffffffffff168373ffffffffffffffffffffffffffffffffffffffff16141515156112ea57600080fd5b61130c848484848151811015156112fd57fe5b90602001906020020151611976565b80806001019150506111f3565b50505050565b611327611fd8565b600760008381526020019081526020016000206000018054600181600116156101000203166002900480601f0160208091040260200160405190810160405280929190818152602001828054600181600116156101000203166002900480156113d15780601f106113a6576101008083540402835291602001916113d1565b820191906000526020600020905b8154815290600101906020018083116113b457829003601f168201915b50505050509050919050565b600660009054906101000a900473ffffffffffffffffffffffffffffffffffffffff1681565b6040805190810160405280600381526020017f484447000000000000000000000000000000000000000000000000000000000081525081565b6000600660009054906101000a900473ffffffffffffffffffffffffffffffffffffffff1673ffffffffffffffffffffffffffffffffffffffff163373ffffffffffffffffffffffffffffffffffffffff1614151561149a57600080fd5b6114b560016114a7610c37565b611ab590919063ffffffff16565b90506114c13382611ad3565b803373ffffffffffffffffffffffffffffffffffffffff1660007fddf252ad1be2c89b69c2b068fc378daa952ba7f163c4a11628f55a4df523b3ef60405160405180910390a450565b600660009054906101000a900473ffffffffffffffffffffffffffffffffffffffff1673ffffffffffffffffffffffffffffffffffffffff163373ffffffffffffffffffffffffffffffffffffffff1614151561156657600080fd5b600073ffffffffffffffffffffffffffffffffffffffff1661158787611073565b73ffffffffffffffffffffffffffffffffffffffff16141515156115aa57600080fd5b600060086000888152602001908152602001600020541415156115cc57600080fd5b60006002866040518082805190602001908083835b60208310151561160657805182526020820191506020810190506020830392506115e1565b6001836020036101000a03801982511681845116808217855250505050505090500191505090815260200160405180910390205414151561164657600080fd5b61164f84611c33565b935061165a83611c33565b925061166582611c33565b915061167081611c33565b905060c060405190810160405280868152602001858152602001848152602001838152602001828152602001428152506007600088815260200190815260200160002060008201518160000190805190602001906116cf929190611fec565b506020820151816001015560408201518160020155606082015181600301556080820151816004015560a0820151816005015590505060016008600088815260200190815260200160002081905550856002866040518082805190602001908083835b6020831015156117575780518252602082019150602081019050602083039250611732565b6001836020036101000a038019825116818451168082178552505050505050905001915050908152602001604051809103902081905550505050505050565b6117a1338383611976565b5050565b3373ffffffffffffffffffffffffffffffffffffffff166117c582610fb7565b73ffffffffffffffffffffffffffffffffffffffff161415156117e757600080fd5b6117fa6117f382611073565b3383611976565b50565b600660009054906101000a900473ffffffffffffffffffffffffffffffffffffffff1673ffffffffffffffffffffffffffffffffffffffff163373ffffffffffffffffffffffffffffffffffffffff1614151561185957600080fd5b8073ffffffffffffffffffffffffffffffffffffffff16600660009054906101000a900473ffffffffffffffffffffffffffffffffffffffff1673ffffffffffffffffffffffffffffffffffffffff16141515156118b657600080fd5b8073ffffffffffffffffffffffffffffffffffffffff16600660009054906101000a900473ffffffffffffffffffffffffffffffffffffffff1673ffffffffffffffffffffffffffffffffffffffff167f8be0079c531659141344cd1fd0a4f28419497f9722a3daafe3b4186f6b6457e060405160405180910390a380600660006101000a81548173ffffffffffffffffffffffffffffffffffffffff021916908373ffffffffffffffffffffffffffffffffffffffff16021790555050565b600073ffffffffffffffffffffffffffffffffffffffff168273ffffffffffffffffffffffffffffffffffffffff16141515156119b257600080fd5b6119bb81611073565b73ffffffffffffffffffffffffffffffffffffffff168273ffffffffffffffffffffffffffffffffffffffff16141515156119f557600080fd5b8273ffffffffffffffffffffffffffffffffffffffff16611a1582611073565b73ffffffffffffffffffffffffffffffffffffffff16141515611a3757600080fd5b611a418382611c62565b611a4b8382611d41565b611a558282611ad3565b808273ffffffffffffffffffffffffffffffffffffffff168473ffffffffffffffffffffffffffffffffffffffff167fddf252ad1be2c89b69c2b068fc378daa952ba7f163c4a11628f55a4df523b3ef60405160405180910390a4505050565b6000808284019050838110151515611ac957fe5b8091505092915050565b60008073ffffffffffffffffffffffffffffffffffffffff166001600084815260200190815260200160002060009054906101000a900473ffffffffffffffffffffffffffffffffffffffff1673ffffffffffffffffffffffffffffffffffffffff16141515611b4257600080fd5b826001600084815260200190815260200160002060006101000a81548173ffffffffffffffffffffffffffffffffffffffff021916908373ffffffffffffffffffffffffffffffffffffffff160217905550611b9d8361112c565b9050600460008473ffffffffffffffffffffffffffffffffffffffff1673ffffffffffffffffffffffffffffffffffffffff1681526020019081526020016000208054806001018281611bf0919061206c565b9160005260206000209001600084909190915055508060056000848152602001908152602001600020819055506000808154809291906001019190505550505050565b6000808210151515611c4457600080fd5b60648211151515611c5457600080fd5b6007600a0a82029050919050565b8173ffffffffffffffffffffffffffffffffffffffff16611c8282611073565b73ffffffffffffffffffffffffffffffffffffffff16141515611ca457600080fd5b60006003600083815260200190815260200160002060006101000a81548173ffffffffffffffffffffffffffffffffffffffff021916908373ffffffffffffffffffffffffffffffffffffffff1602179055508060008373ffffffffffffffffffffffffffffffffffffffff167f8c5be1e5ebec7d5bd14f71427d1e84f3dd0314c0f7b2291e5b200ac8c7c3b92560405160405180910390a45050565b60008060008473ffffffffffffffffffffffffffffffffffffffff16611d6685611073565b73ffffffffffffffffffffffffffffffffffffffff16141515611d8857600080fd5b60056000858152602001908152602001600020549250611dba6001611dac8761112c565b611fbf90919063ffffffff16565b9150600460008673ffffffffffffffffffffffffffffffffffffffff1673ffffffffffffffffffffffffffffffffffffffff16815260200190815260200160002082815481101515611e0857fe5b906000526020600020900154905060006001600086815260200190815260200160002060006101000a81548173ffffffffffffffffffffffffffffffffffffffff021916908373ffffffffffffffffffffffffffffffffffffffff16021790555080600460008773ffffffffffffffffffffffffffffffffffffffff1673ffffffffffffffffffffffffffffffffffffffff16815260200190815260200160002084815481101515611eb657fe5b9060005260206000209001819055506000600460008773ffffffffffffffffffffffffffffffffffffffff1673ffffffffffffffffffffffffffffffffffffffff16815260200190815260200160002083815481101515611f1357fe5b906000526020600020900181905550600460008673ffffffffffffffffffffffffffffffffffffffff1673ffffffffffffffffffffffffffffffffffffffff168152602001908152602001600020805480919060019003611f749190612098565b50600060056000868152602001908152602001600020819055508260056000838152602001908152602001600020819055506000808154809291906001900391905055505050505050565b6000828211151515611fcd57fe5b818303905092915050565b602060405190810160405280600081525090565b828054600181600116156101000203166002900490600052602060002090601f016020900481019282601f1061202d57805160ff191683800117855561205b565b8280016001018555821561205b579182015b8281111561205a57825182559160200191906001019061203f565b5b50905061206891906120c4565b5090565b8154818355818115116120935781836000526020600020918201910161209291906120c4565b5b505050565b8154818355818115116120bf578183600052602060002091820191016120be91906120c4565b5b505050565b6120e691905b808211156120e25760008160009055506001016120ca565b5090565b905600a165627a7a72305820fe76b37b8281ab39006f5474a81b4c3c9df503636a54672a2b36f59be2c34ba80029",
  "source": "pragma solidity ^0.4.18;\n\nimport \"./SafeMath.sol\";\nimport \"./ERC721.sol\";\n\ncontract Hedgie is ERC721{\n    using SafeMath for uint256;\n\n    string public constant name = \"Hedgie\";\n    string public constant symbol = \"HDG\";\n    uint public constant decimals = 7;\n\n    uint256 private _totalSupply = 0;\n\n    // Mapping from token ID to owner address\n    mapping(uint256 => address) private tokenOwner;\n\n    // Mapping from color to token ID\n    mapping(string => uint256) private colorToToken; \n\n    // Mapping from token ID to approved address\n    mapping (uint256 => address) private tokenApprovals;\n\n    // Mapping from owner to list of owner token IDs\n    mapping (address => uint256[]) private ownedTokens;\n\n    // Mapping from token ID to index of the owner tokens list\n    mapping(uint256 => uint256) private ownedTokensIndex;\n\n    // Owner address\n    address public owner = msg.sender;\n\n    struct TokenMetadata {\n        string color;\n        uint256 fire;\n        uint256 earth;\n        uint256 air;\n        uint256 water;\n        uint256 creationTimestamp;\n    }\n\n    // Mapping from token ID to token Meta Data\n    mapping(uint256 => TokenMetadata) public tokenMetadata;\n\n    // Mapping from token ID to its existence\n    mapping(uint256 => uint256) public tokenMetadataExistence;\n\n    modifier onlyOwnerOf(uint256 _tokenId) {\n        require(ownerOf(_tokenId) == msg.sender);\n        _;\n    }\n\n    modifier onlyOwner() {\n        require (msg.sender == owner);\n        _;\n    }\n\n    function() public payable {}\n\n    function transferOwnership(address newOwner) public onlyOwner {\n        require(owner != newOwner);\n\n        OwnershipTransferred(owner, newOwner);\n        owner = newOwner;\n    } \n\n    function totalSupply() public view returns (uint256){\n        return _totalSupply;\n    }\n\n    /**\n     * @dev Gets the balance of the specified address\n     * @param _owner address to query the balance of\n     * @return uint256 representing the amount owned by the passed address\n     */\n    function balanceOf(address _owner) public view returns (uint256) {\n        return ownedTokens[_owner].length;\n    }\n\n    function ownerOf(uint256 _tokenId) public view returns (address){\n        address _owner = tokenOwner[_tokenId];\n        require(_owner != address(0));\n        return _owner;\n    }  \n\n    function implementsERC721() public view returns (bool _implementsERC721){\n        return true;\n    }\n\n    function parseValue(uint256 _value) internal pure returns (uint256){\n        require(_value >= 0);\n        require(_value <= 100);\n\n        return _value * (10 ** decimals);\n    }\n\n    /**\n     * @dev Gets the approved address to take ownership of a given token ID\n     * @param _tokenId uint256 ID of the token to query the approval of\n     * @return address currently approved to take ownership of the given token ID\n     */\n    function approvedFor(uint256 _tokenId) public view returns (address) {\n        return tokenApprovals[_tokenId];\n    }\n\n    /**\n     * @dev Approves another address to claim for the ownership of the given token ID\n     * @param _to address to be approved for the given token ID\n     * @param _tokenId uint256 ID of the token to be approved\n    */\n    function approve(address _to, uint256 _tokenId) public onlyOwnerOf(_tokenId){\n        require(msg.sender != _to);\n\n        if (approvedFor(_tokenId) != 0 || _to != 0) {\n            tokenApprovals[_tokenId] = _to;\n            Approval(msg.sender, _to, _tokenId);\n        }\n    }\n\n    function approveMultiple(address _to, uint256[] _tokenIds) public{\n        require(msg.sender != _to);\n\n        for (uint i = 0; i < _tokenIds.length; i++) {\n            require(msg.sender == ownerOf(_tokenIds[i]));\n\n            if (approvedFor(_tokenIds[i]) != 0 || _to != 0) {\n                tokenApprovals[_tokenIds[i]] = _to;\n                Approval(msg.sender, _to, _tokenIds[i]);\n            }\n        }\n    }\n\n    /**\n     * @dev Internal function to clear current approval of a given token ID\n     * @param _tokenId uint256 ID of the token to be transferred\n     */\n    function clearApproval(address _owner, uint256 _tokenId) private {\n        require(ownerOf(_tokenId) == _owner);\n        tokenApprovals[_tokenId] = 0;\n        Approval(_owner, 0, _tokenId);\n    }\n\n    function createToken() public onlyOwner {\n        uint256 _tokenId = totalSupply().add(1);\n\n        addToken(msg.sender, _tokenId);\n        Transfer(0x0, msg.sender, _tokenId);\n    }\n\n    /**\n     * @dev Internal function to add a token ID to the list of a given address\n     * @param _to address representing the new owner of the given token ID\n     * @param _tokenId uint256 ID of the token to be added to the tokens list of the given address\n     */\n    function addToken(address _to, uint256 _tokenId) private {\n        require(tokenOwner[_tokenId] == address(0));\n\n        tokenOwner[_tokenId] = _to;\n        uint256 length = balanceOf(_to);\n        ownedTokens[_to].push(_tokenId);\n        ownedTokensIndex[_tokenId] = length;\n\n        _totalSupply++;\n    }\n\n    /**\n     * @dev Internal function to remove a token ID from the list of a given address\n     * @param _from address representing the previous owner of the given token ID\n     * @param _tokenId uint256 ID of the token to be removed from the tokens list of the given address\n     */\n    function removeToken(address _from, uint256 _tokenId) private {\n        require(ownerOf(_tokenId) == _from);\n\n        uint256 tokenIndex = ownedTokensIndex[_tokenId];\n        uint256 lastTokenIndex = balanceOf(_from).sub(1);\n        uint256 lastToken = ownedTokens[_from][lastTokenIndex];\n\n        /* Remove token from owner */\n        tokenOwner[_tokenId] = address(0); // No owner for this token\n        ownedTokens[_from][tokenIndex] = lastToken;\n        ownedTokens[_from][lastTokenIndex] = 0;\n        ownedTokens[_from].length--;\n\n        ownedTokensIndex[_tokenId] = 0;\n        ownedTokensIndex[lastToken] = tokenIndex;\n\n        _totalSupply--;\n    }\n\n    /**\n     * @dev Internal function to clear current approval and transfer the ownership of a given token ID\n     * @param _from address which you want to send tokens from\n     * @param _to address which you want to transfer the token to\n     * @param _tokenId uint256 ID of the token to be transferred\n     */\n    function clearApprovalAndTransfer(address _from, address _to, uint256 _tokenId) internal {\n        require(_to != address(0));\n        require(_to != ownerOf(_tokenId));\n        require(ownerOf(_tokenId) == _from);\n\n        clearApproval(_from, _tokenId);\n        removeToken(_from, _tokenId);\n        addToken(_to, _tokenId);\n        Transfer(_from, _to, _tokenId);\n    }\n\n    /**\n     * @dev Claims the ownership of a given token ID\n     * @param _tokenId uint256 ID of the token being claimed by the msg.sender\n     */\n    function takeOwnership(uint256 _tokenId) public{\n        require(approvedFor(_tokenId) == msg.sender);\n        clearApprovalAndTransfer(ownerOf(_tokenId), msg.sender, _tokenId);\n    }\n\n    function transferFrom(address _from, address _to, uint256 _tokenId) public {\n        require(approvedFor(_tokenId) == msg.sender);\n        require(ownerOf(_tokenId) == _from);\n        require(_to != address(0));\n\n        clearApprovalAndTransfer(_from, _to, _tokenId);\n    }\n\n    function transferFromMultiple(address _from, address _to, uint256[] _tokenIds) public {\n        for (uint i = 0; i < _tokenIds.length; i++){\n            require(approvedFor(_tokenIds[i]) == msg.sender);\n            require(ownerOf(_tokenIds[i]) == _from);\n            require(_to != address(0));\n\n            clearApprovalAndTransfer(_from, _to, _tokenIds[i]);\n        }\n    }\n\n    /**\n     * @dev Transfers the ownership of a given token ID to another address\n     * @param _to address to receive the ownership of the given token ID\n     * @param _tokenId uint256 ID of the token to be transferred\n     */\n    function transfer(address _to, uint256 _tokenId) public {\n        clearApprovalAndTransfer(msg.sender, _to, _tokenId);\n    }\n\n    function transferMultiple(address _to, uint256[] _tokenIds) public {\n        for (uint i = 0; i < _tokenIds.length; i++){\n            clearApprovalAndTransfer(msg.sender, _to, _tokenIds[i]);\n        }\n    }\n\n    function tokenOfOwnerByIndex(address _owner, uint256 _index) external view returns (uint256 tokenId){\n        return ownedTokens[_owner][_index];\n    }\n\n    function getTokenAttributes(uint256 _tokenId) public constant returns (uint256, uint256, uint256, uint256){\n        return (tokenMetadata[_tokenId].fire, tokenMetadata[_tokenId].earth, tokenMetadata[_tokenId].air, tokenMetadata[_tokenId].water);\n    }\n\n    function getTokenColor(uint256 _tokenId) public constant returns (string){\n        return tokenMetadata[_tokenId].color;\n    }\n\n    /**\n     * @dev return token ID from color code\n     */\n    function tokenIdFromColor(string _color) public view returns (uint256 tokenId){\n        return colorToToken[_color];\n    }\n\n    /**\n     * @dev Add a token meta data\n     */\n    function addTokenMetadata(\n        uint256 _tokenId,\n        string _color, \n        uint256 _fire, \n        uint256 _earth, \n        uint256 _air, \n        uint256 _water\n    ) public onlyOwner {\n        require(ownerOf(_tokenId) != address(0)); // Token Exists\n        require(tokenMetadataExistence[_tokenId] == 0); // New Token Metadata\n        require(colorToToken[_color] == 0); // New Color\n\n        _fire = parseValue(_fire);\n        _earth = parseValue(_earth);\n        _air = parseValue(_air);\n        _water = parseValue(_water);\n\n        tokenMetadata[_tokenId] = TokenMetadata(\n            _color, _fire, _earth, _air, _water, now\n        );\n\n        tokenMetadataExistence[_tokenId] = 1;\n        colorToToken[_color] = _tokenId;\n    }\n}",
  "sourcePath": "/Projects/HedgieGame/smartcontracts/contracts/Hedgie.sol",
  "compiler": {
    "name": "solc",
    "version": "0.4.18+commit.9cf6e910.Emscripten.clang"
  },
  "schemaVersion": "1.0.1",
  "updatedAt": "2018-03-09T09:41:31.714Z"
}